:10000000F20A0400000000000000000000000000F0
:1000100000000000000000000000000000000000E0
:1000200000000000000000000000000000000000D0
:1000300000000000000000000000000000000000C0
:1000400000000000000000000000000000000000B0
:1015E400AF032100F0FF270020A0B7001020200047
:1015F40032A0B700400020004420B700F80B0200DE
:10160400000000008A1F780030FF0700044EA90084
:10161400044EA800B8072000972421000E20ED00F6
:10162400FEFF3A001020ED00FCFF3A00044EA90032
:101634000020EF00C08088000020EF00A080880018
:101644000020EF00908088000020EF006081880077
:10165400710221000020EF00804878000020EF0094
:101664000220EF0040818800518188000020EF00B3
:101674000220EF00B0818800C18188000020EF00C3
:101684000220EF0090818800A18188000020EF00F3
:101694000220EF0070818800818188000020EF0023
:1016A4000220EF00D0808800E180880071012100D1
:1016B4000020EF0080487800610121000020EF0045
:1016C40080487800158EA900610221000020EF00F7
:1016D40080487800090037000080200001002000C5
:1016E4001081880021818800F07F2C00A11D20003A
:1016F400F08088000181880001003700F6FF370080
:10170400128180002381800000EA2700110020005C
:101714000001410081814900E0002100621851006C
:1017240060905900600021006118510060905900D8
:1017340012808800238088004005250011002000C5
:10174400408188005181880040E22000310020005F
:10175400B0818800C1818800000021001014A0001D
:1017640000002100104078000020AE001C0037006B
:1017740000002100104078000000AF00180037007E
:10178400AAC0B3001CFF0700710121008048780043
:10179400A1CAB3000104E10007003A0000002100DF
:1017A4001004A0007102210010C0B300804878002A
:1017B400044EA8000A003700000021001004A10014
:1017C4002288A90021E2A900710221000020EF0073
:1017D400804878007001210010457800D9FE070088
:0C17E40024FF07004F057800FFFF3700CE
:1012D000981E2000479224000E20ED00FEFF3A00E9
:1012E0001020ED00FCFF3A000000000000000000AC
:1012F000000000000E2EEF001E2EEF0090FF0700F2
:10130000004EA900044EA900100EA900008EA800EE
:10131000000021001014A100000021001004A10011
:10132000000021001024A10098012000E7A0260061
:101330000E20ED00FEFF3A001020ED00FCFF3A0009
:0813400000000000000006009F
:10114000600420007105200022742000004978000E
:101150000149780042C7A900F10F20004068200033
:1011600010816000016020004068200001087100CB
:101170003134800000F02F00808060006068200023
:10118000658870004136800000F02F00008160000B
:1011900091022000806C20000108710010EEA9006F
:0C11A000110EA900112EA800000006008E
:1013FC000200FA006054E10001003A001AC0B30088
:10140C000420EF000A14E10015003100821F78005F
:10141C008A1F780017FE07004F0578004F017800EF
:10142C0000479800A1CAB3000104E10001003A0092
:10143C000B003700F0FC0700280020000788230071
:10144C000E20ED00FEFF3A001020ED00FCFF3A00EC
:10145C0000000000000000000460EC00E9FF370011
:0C146C000E4090000080FA000000060016
:100C80000200FA008A1F78008B1F78008C1F780002
:100C90008D1F7800100EA900DAFE07001420EF0067
:100CA000DBFE07000020EF00000798000105200090
:100CB000600047001008E10006003600FACFB300DC
:100CC000C6FE07008E00900060004700618840006B
:100CD000F6FF370018FE07000020EF00000798001D
:100CE0000E0090007000E10006003100FACFB30062
:100CF000BAFE07008E009000600047006188400047
:100D0000F7FF37000020EF00000798008E009000EA
:100D1000007D20000008E10014003100ADC4B300E4
:100D20001620EF001820EF001420EF00D2FD07007E
:100D3000CAFD07000080FB006100E10001003A00ED
:100D40000A0037008E009000F07C20000008E100CF
:100D500002003A0000C1B300F30037008E0090009B
:100D60006000470061884000E8FF370050FE070040
:100D70006004E10002003A0010C1B300EA0037004D
:100D80003DC4B300AB1A20000C0020008AC0B300A1
:100D9000B9FD0700B1FD0700804078000080FB002E
:100DA0006100E1001F0032000020EF000007980002
:100DB0008E009000007D20000008E1001800310046
:100DC0003BFE07006004E10002003A0010C1B300DE
:100DD000D5003700CDC7B3001620EF001820EF0074
:100DE0001AC0B300A4FD07009CFD07006004E100E9
:100DF00001003A000A0037008E009000F07C2000CD
:100E00000008E10002003A0020C1B300C60037002C
:100E10008E0090006000470061884000E4FF3700CA
:100E20007D0037000180FB006100E10078003A009E
:100E300039FE07000002BE00F20F20000300200070
:100E400002016000A0CAB3000014E10002003200F9
:100E500030C1B300B400370000F0200001002000D2
:100E600000016200818162004810DE00C818DD00C8
:100E700001007000C818DE006104E10002003200C9
:100E800040C1B300A800370009FE07006004E1007C
:100E900002003A0010C1B300A3003700EDC7B30051
:100EA0001620EF001820EF00AAC3B30072FD070060
:100EB0006AFD0700804078000080FB006100E100CF
:100EC00002003200014078009700370012FE070050
:100ED00002002800F30F20000201600083816000FF
:100EE00000002800F10F20000010E1000198E1004F
:100EF0000200320040C1B3008B003700ECFD070058
:100F00006004E10002003A0010C1B300860037001F
:100F10008DC4B3001B0020000C002000BAC3B30036
:100F200055FD07004DFD0700804078000080FB0064
:100F30006100E10002003200014078007A003700D1
:100F40000020EF00000798008E009000007D200038
:100F50000008E1002D003100D5FD07006004E1002C
:100F600002003A0010C1B3006F0037002DC3B30078
:100F70001620EF001820EF007AC3B3003EFD0700F3
:100F800036FD0700CAFD07006004E10002003A00D8
:100F900010C1B300640037000020EF007000E100D2
:100FA00007003100801F7800FACFB3000BFE070066
:100FB0004F007800E100400001007800F7FF3700A3
:100FC000BDC3B3000B0020000C0024009AC2B30084
:100FD00029FD070021FD07006004E10001003A003F
:100FE0000A0037008E009000F07C20000008E1002D
:100FF00002003A0020C1B3004B0037008E00900081
:101000006000470061884000CFFF370002003700D2
:101010000140780044003700A5FD07006004E100AE
:1010200002003A0010C1B3003F0037008DC4B30086
:101030001620EF001820EF00BAC3B3000EFD070022
:1010400006FD0700804078006004E10002003200E5
:10105000014078003400370095FD07006004E1008E
:1010600002003A0010C1B3002F003700ADC0B3003A
:101070000B2020000C0020000AC1B300FEFC07007A
:10108000F6FC0700804078006004E10002003200B6
:10109000014078002400370085FD07006004E1006E
:1010A00002003A0010C1B3001F003700EDC7B300C3
:1010B0001620EF001820EF00AAC3B300EEFC0700D3
:1010C000E6FC0700804078006004E1000200320086
:1010D00001407800140037008FFD07004E09DE0044
:1010E0008001EB001000210002487800C5FD0700D8
:1010F0000020EF00000798000E0090007000E10053
:1011000006003100FACFB300B4FD07008E00900056
:101110006000470061884000F7FF37001AC0B30045
:10112000BBFD0700A0CAB300CF0678004F067800C9
:10113000CF0578004F0578000080FA000000060017
:0C080400140EA800000000000000060018
:100810008A1F78008B1F78008C1F78008D1F78004E
:1008200041E2A9006154E1000F003A001A20EF00F4
:100830000C0120001620EF000A0220000020EF002B
:10084000801F780000042000801F78000020EF0047
:10085000801F78000020EF00801F7800E8FE07006E
:100860008F00B1000E0037001A20EF00CC012000ED
:100870001620EF000A0220000020EF00801F780001
:1008800000042000801F78000020EF00801F780007
:100890000020EF00801F7800D9FE07008F00B10014
:1008A00041E2A800CF0678004F067800CF05780017
:0808B0004F057800000006006E
:100400000000FA00CEB897003EBA97002EB99700C8
:100410009EB997004022EF004222EF00F0FF2F002C
:1004200060808800F0FF2F00508088000B0075006E
:100430000C0070000D0070000100700004007000DE
:1004400082007000202420000388700040C2A900B0
:0C04500041E2A8000080FA000000060055
:1007DC000A80FB0048A2B7004022AE00010037009F
:1007EC00FDFF37004002AF0001003700FDFF37006E
:0807FC0048C2BF000000060026
:0C053800140EA9000000000000000600E6
:100478008A1F78008A80FB0000042000008070003A
:10048800004578008D1F78008B1F78008C1F78003E
:1004980000457800CF0007004F067800CF057800A8
:1004A8004860DE008000EB008B1F78008C1F78000E
:1004B80000457800C70007004F067800CF05780090
:1004C8000C0078008000EB008B1F78008C1F7800F0
:1004D80000457800BF0007004F067800CF05780078
:1004E8004858DE00C860DD0001007000C860DE000A
:1004F8008B1F78008C1F780000457800B500070036
:100508004F067800CF0578000B457800B10007004A
:10051800CF0678000D80FB004100DD00610070000F
:1005280000457800AB0007004F0578000000060082
:10045C008A1F7800FACFB300DD000700FACFB30093
:0C046C00DB0007004F05780000000600D0
:1006B0000200FA008A1F78000420EF00007D20006D
:1006C0000010E10010003100821F7800FACFB30063
:1006D000420007004F01780000479800F1CFB300B7
:1006E0000104E10001003A0007003700F07C20001F
:1006F0000010E10002003A000020EF000300370084
:100700000420EC00EDFF37000E4090004F0578000C
:080710000080FA000000060061
:100718000400FA008A1F7800FACFB3002D00070002
:100728000080FB008000EB0000079800110798008C
:10073800FACFB300270007008E0090001E0190003A
:100748004812DD00C809DE0004827100C809DD0016
:100758008080FB000001EB006000470001987100F9
:1007680002107200FACFB3001A0007008E00900042
:100778001E0190004812DD00C809DE0004827100E5
:10078800C809DD008080FB000001EB006000470025
:100798000198710002107200FACFB3000D00070033
:1007A8000E0290009E029000C829DD004821DE005C
:1007B800830171004821DD000080FB008000EB0010
:1007C80000007100818071004F0578000080FA00F8
:0407D8000000060017
:101348000A4078006954E100030036006940500003
:101358000041780001003700004178000020EF00CC
:10136800C08088008280FB00800121001008E10015
:1013780016003600044EA800E8032000479220001B
:101388000E20ED00FEFF3A001020ED00FCFF3A00B1
:101398000000000000000000044EA900E80320003F
:1013A800479220000E20ED00FEFF3A001020ED00CD
:1013B800FCFF3A00000000000000000011002000BF
:1013C8008001210010884000E6FF3700F816200051
:1013D800B76D23000E20ED00FEFF3A001020ED004F
:1013E800FCFF3A000000000000000000DBFF3700AF
:0413F80000000600EB
:101478000004FA008A1F78008B1F78008C1F780000
:1014880012C0B3000020EF00C0808800C180800037
:10149800002020000008E10010003100E0004700B3
:1014A800800121001080400002487800614041001E
:1014B800004178008080FB00001020000008E10057
:1014C80002003A0012C0B3000000370011002000EB
:1014D8008001210010884000ECFF3700439C200069
:1014E8000400200060004700831F7800841F7800F4
:1014F8004B9C20000C00200000057800ECFC070045
:101508004F027800CF0178007101210080487800EF
:101518007604E10004003A001BC0B3001A00200062
:1015280047FD070002003700AAC0B30084FF070088
:101538000020200000004700831F7800841F7800E7
:101548008305780004067800000578006BFD070025
:101558004F027800CF0178006101210080487800AF
:101568006004E10004003A001BC0B3001A00200028
:1015780033FD070002003700BAC0B30070FF070050
:10158800E180410060014A0000202000000047007F
:10159800810578000206780000057800C4FC070081
:1015A80071012100804878007604E10004003A00C7
:1015B8001BC0B3001A00200021FD070002003700FD
:1015C800CAC0B3005EFF07004F067800CF05780059
:0C15D8004F0578000080FA0000000600BB
:1008B8008D1F78001EFF07001000210010407800EF
:1008C8006204E10006003A00C960DD004758DE0016
:1008D800810070004958DD00800578000106780025
:1008E8008B1F78008C1F78008A1F78006EFF070026
:1008F8004F0578004F067800CF0578006004E100C6
:1009080002003A0010C1B3004B0037008A1F78007C
:10091800FDCFB3008AC1B300D5FE0700CDFE0700A6
:100928004F057800804078006004E1000200320042
:1009380001407800400037008A1F7800EACFB300F2
:10094800A4FF07004F0578000220EF0000202000D8
:100958000008E1000D00310001004500811F78000A
:100968008B1F78008C1F78008A1F7800104578004C
:1009780098FF07004F0578004F067800CF057800EC
:10098800CF0078000220EC00F0FF37008B1F7800C2
:100998008C1F78008A1F7800FACFB3008DFF0700FC
:1009A800FACFB3008BFF0700FACFB30089FF070027
:1009B8004F0578004F067800CF0578000080FB00CF
:1009C8006E0060004180DE0080407800811F780062
:1009D8008B1F78008C1F78008A1F780032FF070071
:1009E8004F0578004F067800CF057800CF007800D3
:1009F8006004E10002003A0010C1B3000E003700A5
:100A08007EFF0700620CE10002003A0060C1B300FB
:100A180009003700650CE10002003A0070C1B3001C
:100A280005003700660CE10002003A0080C1B300FF
:100A380001003700A0C0B300CF0678000000060010
:100A4800004EA900615CE10014003A000020EF00AC
:100A58000A00E10010003100044EA800B807200089
:100A6800972421000E20ED00FEFF3A001020ED0033
:100A7800FCFF3A00044EA900B80720009724210083
:100A88000E20ED00FEFF3A001020ED00FCFF3A00BA
:100A98000020EC00EEFF370017003700625CE10031
:100AA80015003A000020EF000A00E10012003100B2
:100AB800044EA800580F2000274922000E20ED0000
:100AC800FEFF3A001020ED00FCFF3A000000000095
:100AD800044EA900580F2000274922000E20ED00DF
:100AE800FEFF3A001020ED00FCFF3A000000000075
:0C0AF8000020EC00ECFF370000000600BE
:100B04008B1F78008C1F78008D1F780089FE0700EA
:100B140010002100104078006204E10006003A0051
:100B2400C960DD004758DE00810070004958DD00CF
:100B340080057800010678008B1F78008C1F7800F0
:100B44008A1F7800D9FE07004F0578004F06780009
:100B5400CF0578006004E10002003A0010C1B30040
:100B6400180037008A1F7800FDCFB3001AC1B30004
:100B740040FE070038FE07004F057800004178006A
:100B8400F1CFB3000104E10005003A008A1F7800A8
:100B94002BC0B300AA00200069FE07004F057800AF
:100BA4006014E100020032000240780005003700C2
:100BB4000B2020008FFE07008040780010FF070004
:100BC40001407800CF0678004F067800CF05780002
:040BD4000000060017
:10054400002EA900615CE10014003A000020EF00D5
:100554000A00E10010003100042EA800B8072000B2
:10056400972421000E20ED00FEFF3A001020ED003C
:10057400FCFF3A00042EA900B807200097242100AC
:100584000E20ED00FEFF3A001020ED00FCFF3A00C3
:100594000020EC00EEFF370015003700625CE1003C
:1005A40013003A000020EF000A00E10010003100BF
:1005B400042EA800B802200097992B000E20ED000D
:1005C400FEFF3A001020ED00FCFF3A00042EA900C3
:1005D400B802200097992B000E20ED00FEFF3A0090
:1005E4001020ED00FCFF3A000020EC00EEFF370085
:0405F40000000600FD
:1005F8000200FA000420EF00007D20000010E10056
:1006080011003100821F78008A9FBE00FACFB30024
:10061800700007004F05BE004F017800E1CFB3001E
:100628000104E10001003A0007003700F07C2000D7
:100638000010E10002003A0050C1B3001800370072
:100648000420EC00ECFF37000420EF000B10E10061
:100658000C0031000200450000079800821F780056
:100668008A9FBE00FACFB3005A0007004F05BE00AC
:100678004F0178008E009000804878000420EC003C
:10068800F2FF37008A9FBE00FACFB300510007007F
:10069800FACFB3004F0007004F05BE000020EF005F
:0806A8000080FA0000000600CA
:1011AC000400FA000A0798001B079800610056001B
:1011BC00800178004F9ADE006001470032804100C8
:1011CC00A2004A0001E0AE001E003700600147009B
:1011DC001200A600090037008E0090000020EF00DE
:1011EC0080487800110020000200200060004700B9
:1011FC00109840001010490007003700E10156001C
:10120C0060825E0060004700B080410020014A000F
:10121C000020EF00804878006160E10060E8E100A8
:10122C00070036008D00D1000C80D3006102500005
:10123C008E0290000600200004800900861A7800B7
:10124C001E0037000C8076001C0032008E009000CF
:10125C000020EF00804878008E009000F0FF2700FF
:10126C0080806000F0FF27000008E1000A003A00CF
:10127C00600047008C9FBE008A9FBE001B002000B0
:10128C000C0020000005780050FE07004F05BE0042
:10129C004F06BE00050037001100200002002000A0
:1012AC006000470010984000101049006100560083
:1012BC00E0805E000006BE00E2FF37000080FA000E
:0412CC000000060018
:100BD8000000FA0000002800010020000058E10091
:100BE80001E0E100070031003A804500AA004E000C
:100BF8000001BE0001E0AE0002003700028DBE0019
:100C08001B0037000A017800620045001040780098
:100C18000000AF0002003700610041001074A1001D
:100C2800E2004100114078000080FB004100DE0036
:100C3800804878001299450012114E00E2004100E8
:100C4800114078000080FB004100DD0080487800FA
:100C5800610041001040780000E0AE00020037005B
:100C6800620041001004A000610041001074A0005F
:080C78000080FA0000000600F4
:1017F0000A0021000B0020001C0009000B1D7800CE
:0418000000000600DE
:020000040005F5
:285FD80000000000000000008B000000F80000007F000000A3000000C100000003000000000000000000000038
:00000001FF
