:1000000008080400000000000000000000000000DC
:1000100000000000000000000000000000000000E0
:1000200000000000000000000000000000000000D0
:1000300000000000000000000000000000000000C0
:100040000000000062070000C80700000000000078
:10005000E0090000000000000000000000000000B7
:100060000000000000000000000000000000000090
:100070000000000000000000000000000000000080
:100080000000000000000000000000000000000070
:100090000000000000000000000000000000000060
:1000A000A6080000000000000000000000000000A2
:1000B0000000000000000000000000000000000040
:1000C0000000000000000000000000000000000030
:1000D0000000000000000000000000000000000020
:1000E0000000000000000000000000000000000010
:101010000FA82100F0FF270020A0B700102020001B
:1010200032A0B700400020004420B700760D020037
:1010300000000000800D0200000000009EFE07007E
:101040000020EF00B0D388000020EF00C0D388005C
:101050000020EF00A0D3880021A721000020EF008E
:101060008048780031A721000020EF0080487800F8
:10107000A1A721000020EF0080487800E1A721000F
:101080000020EF0080487800F1A721000020EF0049
:1010900080487800D1A721000020EF008048780028
:1010A000B1A721000020EF0080487800C1A72100EF
:1010B0000020EF0080487800710321000020EF003D
:1010C00080487800C10021000020EF0080487800AF
:1010D0000020EF0070808800910021000020EF00C8
:1010E00080487800810021000020EF0080487800CF
:1010F0000020EF0050808800A00021008080880040
:10110000D10021000020EF0080487800048EA90063
:10111000042EA800040EA900046EA900156EA900F3
:101120004822EF0013E1A8000060FE00D800200074
:10113000775023000E20ED00FEFF3A001020ED0056
:0C114000FCFF3A00F8FF3700FFFF37000B
:100AB8008A1F78008B1F78008C1F78008D1F7800A4
:100AC800213A8000F08F2F000080600044A7B70013
:100AD8004074200090407800F0C3B30080C06000EC
:100AE800407420000148780050C0B300804078006E
:100AF8004074200090C06800FFC06000407420006F
:100B080090C0680040742000014878006009200007
:100B1800800078006074200090806800F01F20003A
:100B2800808060006074200090806800313A8800FE
:100B38000E2EEF001E2EEF00002EA900000EA900B9
:100B4800006EA900008EA900116EA900C3E8A800D4
:100B5800F0C2B30080407800606C200090C068004C
:100B6800F0C7B30080C06000606C200090C06800CF
:100B7800606C20000148780030C0B30080407800E5
:100B88002068200090C06800F0C3B30080C06000F7
:100B98002068200090C06800206820000148780084
:100BA80023C8A8000040200080007800E0842000CE
:100BB800908068000070200080806000E084200041
:100BC80090806800714288002023200090407800BF
:100BD800F0C3B30080C060002023200001487800E3
:100BE8001A20EF001820EF000A482800EB01200027
:100BF80010002000801F78008BFE07002F00B10036
:100C080041E2A8003D002000CC0120001620EF00A2
:100C18001420EF000020EF00801F7800000420005F
:100C2800801F780000202000801F78000008200026
:100C3800801F78005CFF07008F00B1000148A90001
:100C480000302000800078004084200090806800F8
:100C58000070200080806000408420009080680040
:100C6800214288000003200010A1B70011E1A9006B
:100C780020E8A80000E8A900B0712B000CA1B7007B
:100C88000000220080007800208420009080680006
:100C98000000270080806000208420009080680089
:100CA800114288000003200012A1B70013E1A90037
:100CB8002108A8000108A90090D023000EA1B700C0
:100CC80020C0B300804078004084200090C06800B5
:100CD800E7C060004084200090C068004084200085
:100CE800014878002148A80098012000E7A02600C4
:100CF8000E20ED00FEFF3A001020ED00FCFF3A0048
:100D080000000000CF0678004F067800CF05780075
:080D18004F0578000000060001
:100630000C00FA00CEB89700C02B20002080880064
:10064000F0FF2F00D0818800F0FF2F00E0818800AC
:10065000F0FF2F00C08188003022EF00000028004A
:1006600032A2B7006008E1002F003A003062A90012
:10067000D6FF0700823E2000030020008CFF070009
:100680000007980011079800D3FF07004100DE0023
:10069000640040000A01BE000000E90003003500CC
:1006A0000201D0008381D200FBFF370022079800AF
:1006B000330798008C9FBE000E0090009E009000B3
:1006C0000002EB004EFF070040079800510798001A
:1006D0002E019000BE0190000E0090009E00900040
:1006E0000002EB007BFF07004F06BE0000079800EA
:1006F00011079800640047005001D100C080D3006A
:10070000680047003008E1002090E100050031005A
:100710008E0090001E01900060004700619840002C
:1007200060104900930037006108E1002F003A0093
:10073000A6FF0700823E2000030020005CFF0700A8
:100740000007980011079800A3FF07004100DE0092
:1007500000A0EC000A01BE000000E9000300350023
:100760000201D0008381D200FBFF370022079800EE
:10077000330798008C9FBE000E0090009E009000F2
:100780000002EB001EFF0700400798005107980089
:100790002E019000BE0190000E0090009E0090007F
:1007A0000002EB004BFF07004F06BE000007980059
:1007B00011079800640047005001D100C080D300A9
:1007C000680047003008E1002090E100050031009A
:1007D0008E0090001E01900060004700619840006C
:1007E000601049003062A800620037003062A90042
:1007F00076FF0700823E2000030020002CFF070048
:10080000000798001107980073FF07004100DE0001
:10081000640040000A01BE000000E900030035004A
:100820000201D0008381D200FBFF3700220798002D
:10083000330798008C9FBE008A9FBE000E00900078
:100840009E0090000002EB00EDFE070040079800BC
:10085000510798002E019000BE0190000E009000FC
:100860009E0090000002EB001AFF07004F05BE003B
:100870004F06BE000007980011079800640047006B
:100880005001D100C080D300680047003008E1006B
:100890002090E100050031008E0090001E019000C4
:1008A000600047006198400060104900E000470088
:1008B00031007800210070002E003A0043FF07004D
:1008C000823E200003002000F9FE07000007980088
:1008D0001107980040FF07004100DE0000A0EC0077
:1008E0000A01BE000000E900030035000201D0004B
:1008F0008381D200FBFF370022079800330798005E
:100900008C9FBE000E0090009E0090000002EB0045
:10091000BBFE070040079800510798002E01900089
:10092000BE0190000E0090009E0090000002EB00BF
:10093000E8FE07004F06BE00000798001107980068
:10094000640047005001D100C080D3006800470018
:100950003008E1002090E100050031008E00900099
:100960001E0190006000470061984000601049003F
:100970003062A8000E0090009E00900061005000C0
:10098000E0805800C01188003222A9008D00760056
:10099000002320001088700031E2A8003342A80034
:1009A00003FF070002FF07000080FA0000000600B6
:0C05CC0000882300110020000000060041
:0805D8002000200000000600D5
:1005B000D8002000775023000E20ED00FEFF3A0007
:0C05C0001020ED00FCFF3A0000000600D7
:1004B0000000FA00020AB800500088000200B800EC
:1004C00081004200032AB800810042000080FA0047
:0404D0000000060022
:100400000000FA000200070054020400000000008F
:100410000800E20002003A00100007000000060099
:10042000811F78000200E20002003D006000100021
:10043000E08018000600E20002003D0060011100AB
:10044000E0811900050007004F00E00002003B00BA
:1004500060001000E08018000000060002000700A5
:100460000480BE00000006006022B80006022000E2
:100470000000D0008180D2000482D2008582D200A8
:100480000000A8000202520083825A0003003B00D1
:100490000202420083824A000000A1000603E90034
:1004A000F3FF3A00000006000080FA00000006009A
:1004D4000000FA0002000700B80204000000000057
:1004E4000800E20002003A001000070000000600C5
:1004F400839F68000200E20002003D0060001000DB
:10050400E08018000600E20002003D0060011100D6
:10051400E0811900050007004F00E00002003B00E5
:1005240060001000E0801800000006006022B8009F
:10053400060220000000D0008180D2000482D20094
:100544008582D2000000A8000202520083825A0071
:1005540003003B000202420083824A000000A10023
:100564000603E900F3FF3A00000006000080FA00E9
:04057400000006007D
:1009B0000000FA00CEB897003EBA97002EB9970013
:1009C0009EB997004022EF004222EF00F0FF2F0077
:1009D00030808800F0FF2F00108088000B00750029
:1009E0000C0070000D007000010070000400700029
:1009F00082007000202420000388700040C2A900FB
:0C0A000041E2A8000080FA00000006009F
:101AEC000A0021000B0020003F0509000B1D7800A7
:041AFC0000000600E0
:101B0000010021000000280000000900B018780042
:041B100000000600CB
:10114C003400F8003200F8003600F800801F7800F8
:10115C00200020000C000900B01F78008A1F7800C6
:10116C008B1F78008C1F780003C8A900C1002100D8
:10117C0036C2BF00804878003222A900C0A72100E7
:10118C00104078006204E10013003A007180800086
:10119C00A00021001008E10009003100E10321004A
:1011AC00E000210090804000C000210090487800B1
:1011BC0011002000E00021001088400006003700DC
:1011CC00C1A721000020EF008048780071032100A6
:1011DC0010C0B30080487800C0A7210010407800F0
:1011EC006004E1000E003A0070032100104078000A
:1011FC006004E1000A003A00C00021009040780031
:10120C00A0C3B300000CE10005003A00C1A7210007
:10121C0010C0B300804878000020EF007080880078
:10122C00C0A72100104078006104E1000B003A00D7
:10123C00708080006500E100080031003101210060
:10124C00E000210090804000C00021009048780010
:10125C0011002000E000210010884000C0A72100F0
:10126C00104078006104E10022003A007080800098
:10127C006500E1001F003A00400121009040780019
:10128C00D0012100100CE10012003A0011E1A9007C
:10129C000621EF00910021005001210090487800B8
:1012AC0061012100808080001148780080808000DE
:1012BC00E10040007001210090487800C1A7210096
:1012CC0020C0B300804878000020EF0070808800B8
:1012DC0008003700C1A721000020EF0080487800EB
:1012EC00710321000020EF00804878000020EF00FF
:1012FC007080880070032100104078006104E100C8
:10130C0021003A0081002100E00321009048780080
:10131C00B1A7210010C0B30080487800046EAA0069
:10132C000C003700800021005C8080009045780024
:10133C001ACBB30077FE07001000370080002100A5
:10134C005C808000904578003ACBB30071FE0700BA
:10135C000A003700900021009040780010CFB300B5
:10136C00000CE100EFFF320090002100904078006B
:10137C0030CFB300000CE100F0FF3200710321000C
:10138C000020EF00804878004F067800CF057800E9
:10139C004F057800A00120000C0009004F107800C8
:1013AC004F0078003600F9003200F9003400F900E3
:0413BC0000400600E7
:100D2000B0A72100104078006104E10016003A00ED
:100D30008101200031D3880080A621000A48780074
:100D400090A621000B487800A0A621000C4878004E
:100D50006180400090407800B0A6210001487800F2
:100D6000048EA800070A20000E20ED00FEFF3A00C6
:100D70000000000000000000048EA900B1A72100BF
:0C0D80000020EF00804878000000060012
:1013C0003400F8003200F8003600F800801F780082
:1013D000200020000C000900B01F78008A1F780050
:1013E0008B1F78008C1F78008D1F78000148A900A2
:1013F0002101210048C2BF008048780020A72100B9
:10140000104078006004E1000D003A002001210046
:101410009040780000CAB300000CE10008003A00D8
:101420001BC0B3001420EF0058FE0700100020007E
:10143000B0D3880080A621001080FB0048A2B7002E
:1014400020A72100104078006104E10013003A0059
:10145000200121009040780000CAB300000CE10098
:101460000E003200200121009040780000CFB30030
:10147000000CE1000900320081A6210060A72100D4
:1014800010804000104078000080FB0048A2B700A8
:101490001100200060A721001088400020A7210033
:1014A000104078006104E10008003A0020012100AA
:1014B0009040780000CFB300000CE10003003A0038
:1014C0001620EF001420EF0030FE070030A72100A7
:1014D000104078006004E1000A003A002001210079
:1014E0009040780010CAB300000CE10005003A00FB
:1014F0001BC0B3001AC0B30024FE07000020EF0099
:10150000B0D3880030A72100104078006104E100CA
:1015100012003A00200121009040780010CAB30068
:10152000000CE1000D003200200121009040780005
:1015300010CFB300000CE1000800320081A62100AA
:1015400060A7210090804000200121009048780091
:101550001100200060A721001088400030A7210062
:10156000104078006104E1001A003A0020012100D7
:101570009040780010CFB300000CE10015003A0055
:10158000D101210080A6210090487800E1012100CE
:1015900010CDB30080487800F101210090A6210011
:1015A0009048780080A621002D0020002CCFB300A9
:1015B000904578002AC0B300E0012100801F780028
:1015C00012FD07002F00B1001620EF001AC0B30073
:1015D000EEFD0700A0A72100104078006004E100A4
:1015E0000A003A00200121009040780020CAB30090
:1015F000000CE10005003A001BC0B3002AC0B30094
:10160000E2FD07000020EF00B0D38800A0A7210072
:10161000104078006104E1000F003A002001210031
:101620009040780020CAB300000CE1000A003200AC
:10163000200121009040780020CFB300000CE10091
:101640000500320081A6210060A7210090804000A3
:101650002001210090487800A0A7210010407800C8
:101660006104E10017003A00200121009040780059
:1016700020CFB300000CE10012003A00D10121009C
:1016800080A6210090487800E101210020CDB30020
:101690008048780080A621001D0020002CCFB300D8
:1016A000904578002AC0B300E0012100801F780037
:1016B000D6FC07002F00B1001620EF002AC0B300AF
:1016C000B2FD0700E0A72100104078006004E100AF
:1016D0000A003A00200121009040780070CAB3004F
:1016E000000CE10005003A001BC0B3007AC0B30053
:1016F000A6FD07000020EF00B0D38800E0A721007E
:10170000104078006104E1000F003A002001210040
:101710009040780070CAB300000CE1000A0032006B
:10172000200121009040780070CFB300000CE10050
:101730000500320081A6210060A7210090804000B2
:101740002001210090487800E0A721001040780097
:101750006104E1001E003A00200121009040780061
:1017600070CFB300000CE10019003A0081A62100FF
:1017700060A721001080400010417800D0012100B6
:1017800002487800E101210020CDB30080487800B4
:101790001D0020001CCFB300824578002AC0B30092
:1017A000E0012100801F780098FC07002F00B100A5
:1017B00011E1A8000621EF00B1A7210010C0B3007D
:1017C000804878001620EF007AC0B3006FFD070054
:1017D000F0A72100104078006004E1000A003A0000
:1017E000200121009040780080CAB300000CE10085
:1017F00005003A001BC0B3008AC0B30063FD0700B8
:101800000020EF00B0D38800F0A72100104078003E
:101810006104E1000B003A00B0D380006400E100F5
:1018200008003100D102210060A721009080400013
:1018300020012100904878001100200060A72100BD
:1018400010884000F0A72100104078006104E100FA
:1018500011003A00B0D380006400E1000E003A00AD
:10186000D1012100E0022100904878009100210080
:10187000F002210090487800000321001080FB0056
:10188000508088000020EF00B0D38800F1A721002D
:1018900020C0B30080487800F0A7210010407800F5
:1018A0006204E1000C003A00B1D38000A0002100E6
:1018B0001008E10008003E00D102210060A72100CD
:1018C0009080400020012100904878001100200005
:1018D00060A7210010884000F0A721001040780088
:1018E0006204E10041003A002001210090407800AC
:1018F00080CFB300000CE1003C003A00B1D380007F
:10190000A00021001008E100380036001620EF008A
:101910008AC0B3001DFD0700508080006100E10017
:10192000130036000020EF00A0D38800A1D3800070
:10193000A00021001008E1000C003100E1012100AD
:1019400040A7210010814000A0D38000E1004000AA
:10195000D002210001004000104978001100200051
:1019600040A7210010884000F0FF37000300370037
:10197000E1012100E002210090487800C1A7210088
:101980000020EF0080487800710321000020EF0064
:10199000804878000020EF0070808800B1A7210007
:1019A00010C0B3008048780091002100D0012100D0
:1019B0005D80800011467800904578002AC0B30011
:1019C000E0012100801F780010FC07002F00B1000B
:1019D000D001210090407800F0CFB300000CE1006E
:1019E0000200320011E1A8000621EF00D0A721007B
:1019F000104078006004E1000D003A002001210051
:101A000090407800A0CAB300000CE10008003A0042
:101A10001BC0B300AAC0B300DCFC0700E003210038
:101A20001080FB0048A2B70010002000B0D388004F
:101A3000D0A72100104078006104E10013003A00B3
:101A40002001210090407800A0CAB300000CE10002
:101A50000E0032002001210090407800A0CFB3009A
:101A6000000CE10009003200E103210060A7210021
:101A700010804000104078000080FB0048A2B700B2
:101A80001100200060A7210010884000D0A721008D
:101A9000104078006104E10008003A0020012100B4
:101AA00090407800A0CFB300000CE10003003A00A2
:101AB0001620EF00AAC0B300B4FC0700CF067800E0
:101AC0004F067800CF0578004F057800A001200070
:101AD0000C0009004F1078004F0078003600F90024
:0C1AE0003200F9003400F900004006005C
:100D8C00615CE10037003A0021A7210030C0B300BC
:100D9C008048780031A7210030C0B300804878002B
:100DAC00A1A7210030C0B30080487800E1A7210042
:100DBC0030C0B30080487800F1A7210030C0B300E8
:100DCC0080487800D1A7210030C0B300804878005B
:100DDC001800370021A7210010C0B300804878000C
:100DEC002000370031A7210010C0B30080487800E4
:100DFC001C003700A1A7210010C0B3008048780068
:100E0C0018003700E1A7210010C0B300804878001B
:100E1C0014003700F1A7210010C0B30080487800FF
:100E2C0010003700D1A7210010C0B3008048780013
:100E3C000C0037006054E100E6FF32006154E10021
:100E4C00E8FF32006254E100EAFF32006754E1002F
:100E5C00ECFF32006854E100EEFF32006A54E1000E
:100E6C00F0FF3200605CE10012003A0021A7210083
:100E7C000020EF008048780031A721000020EF000F
:100E8C0080487800A1A721000020EF00804878005E
:100E9C00E1A721000020EF0080487800F1A7210095
:100EAC000020EF0080487800D1A721000020EF003F
:080EBC008048780000000600E8
:100A0C000000FA008B1F7800CEB89700A0012000E0
:100A1C0000017800156EA800070520000E20ED00DF
:100A2C00FEFF3A0000000000000000008B1F780061
:100A3C00ABC3B300E7FE0700CF057800E5FE070067
:100A4C008C457800E3FE070092457800E1FE070034
:100A5C006100410090457800DEFE07000420EF00A5
:100A6C000D10E10007003100028040008B1F780060
:100A7C0090457800D7FE0700CF0578000420EC00E5
:100A8C00F7FF3700DDFE0700070520000E20ED0004
:100A9C00FEFF3A000000000000000000156EA900E7
:0C0AAC00CF0578000080FA000000060072
:1005E0008A1F78006154E10003003A000B85FB008C
:1005F000E8FF0700020037000B85FB00DEFF070065
:080600004F0578000000060020
:100594000000FA002302AF0001003700FDFF37001E
:0C05A4002A1188000080FA000000060008
:100578000000FA003302AF0001003700FDFF37002A
:0C058800AA1188000080FA0000000600A4
:100608006154E10004003A002302AF000100370002
:10061800FDFF3700030037003302AF000100370049
:08062800FDFF37000000060091
:100F90003400F8003200F8003600F800801F7800B6
:100FA000200020000C000900B01F78000108A900F3
:100FB0001100200000002100108840000080800007
:100FC0006A00E1000A0039000020EF00008088007C
:100FD000042EAA00040EA80007F421000E20ED0044
:100FE000FEFF3A000000000000000000040EA9000F
:100FF000A00120000C0009004F1078004F0078007D
:101000003600F9003200F9003400F9000040060013
:100EC4003400F8003200F8003600F800801F780083
:100ED400200020000C000900B01F78008A1F780051
:100EE4008B1F78008C1F780000E8A90011E1A9008D
:100EF4000621EF00042EAA00C1A721000020EF0064
:100F040080487800710321000020EF0080487800B9
:100F14000020EF007080880030002000508088009E
:100F2400E103210030CDB30080487800F1032100B3
:100F3400E0CEB300804878000104210040CEB30025
:100F440080487800B1A7210010C0B3008048780021
:100F54003C0020003BCDB3003ACBB3006FFF070049
:100F64004F067800CF0578004F057800A0012000D7
:100F74000C0009004F1078004F0078003600F9008B
:0C0F84003200F9003400F90000400600C3
:020000040001F9
:0400000000000000FC
:020000040005F5
:285FD80000000000000000008B000000F80000007F000000A3000000C100000003000000000000000000000038
:00000001FF
