:1000000026080400000000000000000000000000BE
:1000100000000000000000000000000000000000E0
:1000200000000000000000000000000000000000D0
:1000300000000000000000000000000000000000C0
:1000400000000000000000000000000000000000B0
:1000500000000000000000000000000000000000A0
:100060000000000000000000000000000000000090
:100070000000000000000000FE070000000000007B
:100080000000000000000000000000000000000070
:100090000000000000000000000000000000000060
:1000A0000000000000000000000000000000000050
:1000B0000000000000000000000000000000000040
:10104C00AF202100F0FF270020A0B70010202000C7
:10105C0032A0B700400020004420B7003000FA0056
:10106C00C009020000000000213A8000F08F2F0020
:10107C000080600044A7B7004074200090407800C6
:10108C00F0C3B30080C060004074200001487800B9
:10109C0050C0B300804078004074200090C06800BD
:1010AC00FFC060004074200090C0680040742000B5
:1010BC0001487800600920008000780060742000EE
:1010CC0090806800F01F2000808060006074200019
:1010DC0090806800313A88000E2EEF001E2EEF0033
:1010EC00004EA900044EA90011CEA80010AEA90014
:1010FC0014AEA800C3E8A8002288A9000288A900A1
:10110C0010C0B30080407800A084200090C068001C
:10111C00E7C06000A084200090C06800A08420007C
:10112C00014878000020EF00801F78000020EF00BD
:10113C00801F78000020EF00801F78000020EF0057
:10114C00801F78001A20EF001820EF001620EF0007
:10115C000A022000CBFE07008F00B10057FE0700EB
:10116C000040E20010003A00044EA8009801200054
:10117C00E7A026000E20ED00FEFF3A001020ED0047
:10118C00FCFF3A0000000000044EA90028062000D5
:10119C00A7832A000E20ED00FEFF3A001020ED0080
:1011AC00FCFF3A00F0FF37006BFF0700000028003F
:1011BC00801F7800CAFE07002F00B100A00021009C
:1011CC00801F78001000200001002000809FBE00CE
:1011DC005BFD07006F00B100A0002100904078007B
:1011EC00F0CFB300000CE10022003A00B000210067
:1011FC0090407800F0CFB300000CE1001D003A00E5
:10120C00C000210090407800F0CFB300000CE1004A
:10121C0018003A00D000210090407800F0CFB300C5
:10122C00000CE10013003A00A10021000020EF00A7
:10123C0080487800B10021000020EF008048780041
:10124C00C10021000020EF0080487800D10021006F
:10125C000020EF0080487800A0002100801F78005B
:10126C001000200001002000809FBE00DCFC070065
:10127C006F00B100010021000020EF0080487800D1
:10128C000020EF000220EF003080880041808800B1
:10129C000288A9002288A8000060FE00000021003E
:1012AC001004E00028003200010021000020EF00B3
:1012BC00804878001100200002002000600021000E
:1012CC001098400010104900000220000000470058
:1012DC00801F78000610F8000810F800A8FD070021
:1012EC006F00B100E00047000020EF00804878005C
:1012FC0040012800801F7800811F78008BFD0700BB
:10130C004F00B1000002200000004700801F780051
:10131C0060004700801F780074FD07004F00B1008B
:10132C00B0012800801F780060004700801F780003
:10133C006EFD07004F00B10060004700801F780071
:10134C0067FE07002F00B10028002000078823004B
:10135C000E20ED00FEFF3A001020ED00FCFF3A00DD
:10136C000000000000000000CBFF37000080FA00F6
:04137C00FFFF370038
:100C90000000FA00CEB897003EBA97002EB9970030
:100CA0009EB997004022EF004222EF000020200072
:100CB00010808800F0FF2F00208088000B00750056
:100CC0000C0070000D007000010070000400700046
:100CD00082007000202420000388700040C2A90018
:0C0CE00041E2A8000080FA0000000600BD
:100AC8000400FA0082FF07000020EF0000079800EA
:100AD8000E0090006A00E10008003100F00F2000CD
:100AE800801F78007CFF07002F00B1001100200054
:100AF8006000470010884000F5FF370049FF0700F5
:100B080050092000801F78000020EF00CF80DE0011
:100B1800809FBE000020EF00801F78006EFE070057
:100B28008F00B100204798006104E1000300320003
:100B380067FF07000020EF005100370039FF07006A
:100B480070082000801F7800A01A200001002000F3
:100B5800809FBE0080002000801F78005EFE070096
:100B68008F00B100204798006104E10010003A00AE
:100B7800F00F2000801F780057FF07002F00B100FA
:100B8800F00F2000801F780053FF07002F00B100EE
:100B9800F00F2000801F78004FFF07002F00B100E2
:100BA800F00F2000801F78004BFF07002F00B100D6
:100BB8000020EF00000798008E009000007D2000C4
:100BC8000008E1002600310016FF0700F00F2000A2
:100BD800801F78000020EF00CF80DE00809FBE00DD
:100BE80070032000801F78003BFE07008F00B100D3
:100BF800204798006104E1000300320034FF070039
:100C08000020EF001E003700F00F2000801F780042
:100C18000000200001002400809FBE0090022000F8
:100C2800801F78002CFE07008F00B1002047980035
:100C38006004E10001003A000900370007F42100D0
:100C48000E20ED00FEFF3A0000000000000000004A
:100C5800110020006000470010884000D6FF3700D0
:100C68002E4090006004E1000300320018FF0700E6
:100C78000020EF000200370015FF070010C0B30086
:080C88000080FA0000000600E4
:0808D80014AEA80000000600A8
:1008E0000000FA00680057001085FB00C4FE0700F6
:0808F0000080FA000000060080
:100400000000FA0040C2A9004022AE0001003700FF
:10041000FDFF37004A1288004002AF00010037009C
:10042000FDFF37004882BF000080FA000000060090
:08082C0014AEA9000000060053
:1004E0000200FA00FC000700F00F2000801F7800D7
:1004F000FB0007002F00B100CC0007000104200022
:10050000680057001080FB0000807000801F78009A
:10051000F30007002F00B1006C0157001200BE006D
:100520004808DE008000EB00801F7800EC00070028
:100530002F00B1006C015700520078008000EB00E2
:1005400004A0ED00801F7800E50007002F00B10037
:100550002EB99700BEB997004810DE00C818DD001C
:1005600001007000C818DE00801F7800DC00070062
:100570002F00B1006C005700901F7800D8000700D2
:100580002F00B1006E0057001080FB00801F780024
:10059000D30007002F00B1000020EF0000479800B3
:1005A0000E4090006A04E1000D003100F00F2000C1
:1005B000801F7800CA0007002F00B1001047980084
:1005C000F1CFB3000104E100010032000400370064
:1005D00011C0B3006000470010C84000F0FF3700B2
:0C05E0001E4090000080FA0000000600A1
:100F64000200FA000020EF00000798000E00900035
:100F74006300E10018003100044EA80018032000AB
:100F8400C7412D000E20ED00FEFF3A001020ED00B9
:100F9400FCFF3A0000000000000000000000000018
:100FA400044EA90018032000C7412D000E20ED00B7
:100FB400FEFF3A001020ED00FCFF3A0000000000A4
:100FC4000000000000000000110020006000470045
:100FD40010884000E5FF3700B8072000972421005F
:100FE4000E20ED00FEFF3A001020ED00FCFF3A0059
:080FF4000080FA000000060075
:100CEC000800FA00A0002100801F780010002000EE
:100CFC0001002000809FBE0091FE07006F00B10034
:100D0C000040E20001003A0091003700A0002100F1
:100D1C001082FB008002EB00B00021001081FB0070
:100D2C008001EB00C818DD004810DE008100700067
:100D3C004810DD000001720081817200C0002100AA
:100D4C001080FB008000EB00800078000000EB00BE
:100D5C000002710081827100D00021001080FB0024
:100D6C008000EB00C801DD000001EB0060004700D3
:100D7C00021872000390720068005700901F7800F0
:100D8C005BFE07002F00B10020079800800178005F
:100D9C000002EB006001470032804100A2004A00D3
:100DAC0062014000E0814800001E2000010020008C
:100DBC000010E1000198E100040036000020EF0073
:100DCC000220EF0000079800110798000020EF00A8
:100DDC0030079800BE009000640047001008E10046
:100DEC00130031000E0090009E009000680140003E
:100DFC00E08148003E0090008000EB0000014100C3
:100E0C0081814900A000210002014000CEB897006A
:100E1C00660047009080400011407800004978003F
:100E2C00110020006600470010884000E9FF3700E1
:100E3C000E0090009E00900068014000E081480088
:100E4C002E0090008000EB000001410081814900E0
:100E5C00A000210082004000D0C0B3008048780080
:100E6C000E0090009E00900069014000E081480057
:100E7C002E0090008000EB000001410081814900B0
:100E8C00A000210082004000A0C0B3008048780080
:100E9C002E00900000A0EC00800078000001EB0018
:100EAC006000470030824000A0024900040798000F
:100EBC0015079800F1CFB300A00021000148620093
:100ECC00A1002100A0002100904878004821DE00FC
:100EDC00C829DD0003017100C829DE00F1CFB30081
:100EEC00B000210001486100B1002100B0002100D8
:100EFC0090487800050178008001EB00F1CFB30039
:100F0C00C000210001486100C1002100C000210087
:100F1C00904878004829DE008001EB00F1CFB30047
:100F2C00D000210001486100D1002100D000210037
:100F3C0090487800A0002100801F7800100020004D
:100F4C0001002000809FBE00A5FD07006F00B100CE
:080F5C000080FA00000006000D
:10074C000400FA0036000700F00F2000801F78002C
:10075C006A005700B01F7800A01F7800100120001D
:10076C00801F78005BFF07008F00B1006004E10080
:10077C0003003200550007000020EF002600370070
:10078C00F00F2000801F7800520007002F00B100EE
:10079C00E1CFB3000104E10001003200F8FF3700A3
:1007AC000020EF00000798008E0090000020200031
:1007BC000008E1000E003100AEB897006000470061
:1007CC001080400010079800F00F2000801F780068
:1007DC00400007002F00B1009E0090008048780078
:1007EC00110020006000470010884000EEFF370029
:1007FC00F00F2000801F7800360007002F00B1009A
:10080C00F00F2000801F7800320007002F00B1008D
:10081C002E00070010C0B3000080FA000000060094
:1006FC000200FA0000002000000798006800570074
:10070C001000E0000B0032004EB9970011002000E1
:10071C006800570010884000124078000040E2004A
:10072C0004003200110020006000470010884000D7
:10073C00F2FF37000E0090000080FA000000060067
:1005EC000200FA008E000700F00F2000801F780038
:1005FC006A005700B01F7800A01F7800800120000F
:10060C00801F7800B3FF07008F00B1006004E10089
:10061C0003003200AD0007000020EF00320037006D
:10062C00E00F2000801F7800AA0007002F00B10007
:10063C000020EF00000798008E00900000202000A2
:10064C000008E1000C003100AEB8970060004700D4
:10065C0090804000114078000080FB00801F7800E3
:10066C009C0007002F00B100110020006000470023
:10067C0010884000F0FF3700F00F2000801F78003A
:10068C00940007002F00B100F00F2000801F7800AD
:10069C00900007002F00B100F00F2000801F7800A1
:1006AC008C0007002F00B1000080FB007F00600071
:1006BC006500E10003003200840007000020EF0019
:1006CC0009003700F00F2000801F78008100070020
:1006DC002F00B1006004E10001003A00F9FF37007F
:1006EC007A00070010C0B3000080FA00000006007A
:10098C001600FA0000002000000F98000000200064
:10099C00100F98003EB89700CEB897006000E100A9
:1009AC006088E10009003A00AEB8970000C3B300BC
:1009BC00804878002EB89700E10040000020EF003E
:1009CC0080487800100020003A0037003EB89700AD
:1009DC00CEB897006000E1006088E1001B00360093
:1009EC00E00047007000470010804000200F980086
:1009FC00A2002000030020003EB89700CEB897005C
:100A0C000002EB0087FE0700020320000300200019
:100A1C00000141002E0890000248780011002000CF
:100A2C007000470010884000A20020000300200046
:100A3C003EB89700CEB897000002EB007AFF070093
:100A4C0030BF9F0041BF9F00E0FF37000020EF0048
:100A5C00100F98009E089000700047001008E100ED
:100A6C000E003100AEB897007200470010814000B4
:100A7C008E0890007200470010805000E10050007A
:100A8C006000470001004000104978001100200070
:100A9C007200470010884000EEFF3700AEB8970098
:100AAC0070004700908040000020EF0080487800E4
:0C0ABC000E0890000080FA000000060008
:100430000000FA00020007006C0204000000000047
:100440000800E20002003A00100007000000060069
:10045000811F78000200E20002003D0060001000F1
:10046000E08018000600E20002003D00600111007B
:10047000E0811900050007004F00E00002003B008A
:1004800060001000E0801800000006000200070075
:100490000480BE00000006006022B80006022000B2
:1004A0000000D0008180D2000482D2008582D20078
:1004B0000000A8000202520083825A0003003B00A1
:1004C0000202420083824A000000A1000603E90004
:1004D000F3FF3A00000006000080FA00000006006A
:100834000000FA0002000700680404000000000041
:100844000800E20002003A00100007000000060061
:10085400839F68000200E20002003D006000100077
:10086400E08018000600E20002003D006001110073
:10087400E0811900050007004F00E00002003B0082
:1008840060001000E0801800000006006022B8003C
:10089400060220000000D0008180D2000482D20031
:1008A4008582D2000000A8000202520083825A000E
:1008B40003003B000202420083824A000000A100C0
:1008C4000603E900F3FF3A00000006000080FA0086
:0408D400000006001A
:100938000000FA00BEB89700114078000040E200BD
:100948000B003200BEB89700914078004EB897006F
:100958000148780011002000680057001088400006
:10096800110020006A00570010884000F1FF37008E
:10097800CEB897000020EF00804878000080FA0089
:040988000000060065
:1008F8000000FA004EB897001004E000040032002F
:10090800110020006800570010884000F9FF3700E8
:100918006A005700901F780068005700901F780001
:10092800030007004F00B1000080FA000000060035
:101380000A0021000B002000040109000B1D780059
:041390000000060053
:100FFC003400F8003200F8003600F800801F78004A
:10100C00200020000C000900B01F78000288A90005
:10101C00044EAA000100210010C0B30080487800E3
:10102C00A00120000C0009004F1078004F00780040
:10103C003600F9003200F9003400F90000400600D7
:020000040001F9
:100000004C4F0000472000005245000041440000D2
:08001000590D00000A00000078
:10001800332E0000322E0000312E00003000000088
:1000280074690000636B000020230000000D0000CD
:040038000A000000BA
:020000040005F5
:285FD80000000000000000008B000000F80000007F000000A7000000C100000003000000000000000000000034
:00000001FF
