:1000000026060400000000000000000000000000C0
:1000100000000000000000000000000000000000E0
:1000200000000000000000000000000000000000D0
:1000300000000000000000000000000000000000C0
:10004000000000008C06000000000000000000001E
:1000500000000000F40600000000000000000000A6
:100060000000000000000000000000000000000090
:100070000000000000000000540800000000000024
:100080000000000000000000000000000000000070
:100090000000000000000000000000000000000060
:1000A0000000000000000000000000000000000050
:1000B0000000000000000000000000000000000040
:100C4C002F042100F0FF270020A0B7001020200067
:100C5C0032A0B700400020004420B7007608020004
:100C6C00000000004FFF0700044EA9000020EF0019
:100C7C00008288000020EF00F08188000020EF0047
:100C8C0060808800A10021000020EF0080487800DF
:100C9C00110021000020EF0080487800B1002100F5
:100CAC000020EF00804878000020EF008080880052
:100CBC00F10021000020EF0080487800E1002100C5
:100CCC000020EF00804878000020EF002080880092
:100CDC004000210010808800010021000020EF005E
:100CEC0080487800158EA9000060FE00D800200016
:100CFC00775023000E20ED00FEFF3A001020ED008F
:0C0D0C00FCFF3A00F8FF3700FFFF370043
:1009B0008A1F78008B1F78008C1F78008D1F7800AD
:1009C000213A8000F08F2F000080600044A7B7001C
:1009D0004074200090407800F0C3B30080C06000F5
:1009E000407420000148780050C0B3008040780077
:1009F0004074200090C06800FFC060004074200078
:100A000090C0680040742000014878006009200010
:100A1000800078006074200090806800F01F200043
:100A2000808060006074200090806800313A880007
:100A30000E2EEF001E2EEF00004EA900118EA90011
:100A400011CEA800C3E8A800F0C2B300804078002F
:100A5000406C200090C06800F0C7B30080C0600008
:100A6000406C200090C06800406C20000148780075
:100A700010C0B300804078002068200090C068005B
:100A8000F0C3B30080C060002068200090C0680000
:100A900020682000014878002168A800202220005A
:100AA00090407800F0C3B30080C060002022200096
:100AB000014878000168A900000024008000780047
:100AC0004084200090806800000027008080600043
:100AD0004084200090806800214288001A20EF00A6
:100AE0001820EF000A482800EB0120001000200029
:100AF000801F7800CEFE07002F00B10000E022002A
:100B0000A0A6B7002288A8000288A90010C0B300E0
:100B100080407800A084200090C06800E7C060009A
:100B2000A084200090C06800A084200001487800C4
:100B30000003200010A1B70011E1A90020E8A800DF
:100B400000E8A900B0712B000CA1B7000000220042
:100B5000800078002084200090806800000027003A
:100B6000808060002084200090806800114288000E
:100B700098012000E7A026000E20ED00FEFF3A00BD
:100B80001020ED00FCFF3A0000000000CF067800C6
:100B90004F067800CF0578004F057800000006006A
:100630000C00FA00CEB8970000202000408088000F
:10064000F0FF2F0030808800F0FF2F00908088009E
:10065000F0FF2F00E08188002022EF00000028003A
:1006600022A2B7006008E1002F003A002062A90032
:10067000E3FF0700823E200003002000D7FF0700B1
:100680000007980011079800E0FF07004100DE0016
:10069000640040000A01BE000000E90003003500CC
:1006A0000201D0008381D200FBFF370022079800AF
:1006B000330798008C9FBE000E0090009E009000B3
:1006C0000002EB0085FF07004007980051079800E3
:1006D0002E019000BE0190000E0090009E00900040
:1006E0000002EB0054FF07004F06BE000007980011
:1006F00011079800640047005001D100C080D3006A
:10070000680047003008E1002090E100050031005A
:100710008E0090001E01900060004700619840002C
:1007200060104900930037006108E1002F003A0093
:10073000B3FF0700823E200003002000A7FF070050
:100740000007980011079800B0FF07004100DE0085
:1007500000A0EC000A01BE000000E9000300350023
:100760000201D0008381D200FBFF370022079800EE
:10077000330798008C9FBE000E0090009E009000F2
:100780000002EB0055FF0700400798005107980052
:100790002E019000BE0190000E0090009E0090007F
:1007A0000002EB0024FF07004F06BE000007980080
:1007B00011079800640047005001D100C080D300A9
:1007C000680047003008E1002090E100050031009A
:1007D0008E0090001E01900060004700619840006C
:1007E000601049002062A800620037002062A90062
:1007F00083FF0700823E20000300200077FF0700F0
:10080000000798001107980080FF07004100DE00F4
:10081000640040000A01BE000000E900030035004A
:100820000201D0008381D200FBFF3700220798002D
:10083000330798008C9FBE008A9FBE000E00900078
:100840009E0090000002EB0024FF07004007980084
:10085000510798002E019000BE0190000E009000FC
:100860009E0090000002EB00F3FE07004F05BE0063
:100870004F06BE000007980011079800640047006B
:100880005001D100C080D300680047003008E1006B
:100890002090E100050031008E0090001E019000C4
:1008A000600047006198400060104900E000470088
:1008B00031007800210070002E003A0050FF070040
:1008C000823E20000300200044FF0700000798003C
:1008D000110798004DFF07004100DE0000A0EC006A
:1008E0000A01BE000000E900030035000201D0004B
:1008F0008381D200FBFF370022079800330798005E
:100900008C9FBE000E0090009E0090000002EB0045
:10091000F2FE070040079800510798002E01900052
:10092000BE0190000E0090009E0090000002EB00BF
:10093000C1FE07004F06BE0000079800110798008F
:10094000640047005001D100C080D3006800470018
:100950003008E1002090E100050031008E00900099
:100960001E0190006000470061984000601049003F
:100970002062A8000E0090009E00900061005000D0
:10098000E0805800401188002222A9008D007600E6
:10099000002220001088700021E2A8002342A80055
:1009A0001CFF07001BFF07000080FA000000060084
:0C0600000088230011002000000006000C
:08060C002000200000000600A0
:10061400D8002000775023000E20ED00FEFF3A00A2
:0C0624001020ED00FCFF3A000000060072
:1005DC000000FA00020AB800500088000200B800BF
:1005EC0081004200032AB800810042000080FA001A
:0405FC0000000600F5
:1004DC000000FA0002000700C20204000000000045
:1004EC000800E20002003A001000070000000600BD
:1004FC00811F78000200E20002003D006000100045
:10050C00E08018000600E20002003D0060011100CE
:10051C00E0811900050007004F00E00002003B00DD
:10052C0060001000E08018000000060002000700C8
:10053C000480BE00000006006022B8000602200005
:10054C000000D0008180D2000482D2008582D200CB
:10055C000000A8000202520083825A0003003B00F4
:10056C000202420083824A000000A1000603E90057
:10057C00F3FF3A00000006000080FA0000000600BD
:100438000000FA00020007006A0204000000000041
:100448000800E20002003A00100007000000060061
:10045800839F68000200E20002003D006000100077
:10046800E08018000600E20002003D006001110073
:10047800E0811900050007004F00E00002003B0082
:1004880060001000E0801800000006006022B8003C
:10049800060220000000D0008180D2000482D20031
:1004A8008582D2000000A8000202520083825A000E
:1004B80003003B000202420083824A000000A100C0
:1004C8000603E900F3FF3A00000006000080FA0086
:0404D800000006001A
:1010EC000A0021000B002000200009000B1D7800D5
:0410FC0000000600EA
:1010A8003400F8003200F8003600F800801F78009D
:1010B800200020000C000900B01F78000288A90059
:1010C800044EAA00A00120000C0009004F1078006F
:1010D8004F0078003600F9003200F9003400F900BA
:0410E80000400600BE
:100DE8003400F8003200F8003600F800801F780060
:100DF800200020000C000900B01F78008A1F78002E
:100E08008B1F78008C1F78008D1F78000168A9005F
:100E1800B100210026C2BF00804878002222A90024
:100E2800A0002100104078006204E10013003A009D
:100E380081808000400021001008E1000900310095
:100E4800E10121000001210090804000B000210054
:100E5800904878001100200000012100108840000F
:100E680006003700A10021000020EF00804878002C
:100E78001100210010C0B30080487800A0002100B4
:100E8800104078006004E1000E003A0010002100D4
:100E9800104078006004E1000A003A00B000210028
:100EA80090407800A0C3B300000CE10005003A00B0
:100EB800A100210010C0B300804878000020EF0096
:100EC80080808800A0002100104078006104E100C3
:100ED8000B003A00808080006500E10008003100C6
:100EE800410121000001210090804000B000210054
:100EF800904878001100200000012100108840006F
:100F0800A0002100104078006104E1002B003A00A5
:100F1800808080006500E10028003A00500121002F
:100F2800104078006204E100060032005001210000
:100F380090407800F0CFB300000CE10001003200CF
:100F480010003700F100210060012100904878006E
:100F58007101210010808000114878001080800005
:100F6800E10040008001210090487800A1002100A4
:100F780020C0B300804878000020EF0080808800FF
:100F88000E003700A10021000020EF008048780003
:100F9800110021000020EF00804878000020EF00B9
:100FA8008080880011E1A8000621EF0001002100DF
:100FB8000020EF008048780021E2A90010002100FD
:100FC800104078006104E10029003A00E1002100A6
:100FD800E001210090487800F0002100904078005E
:100FE80010CFB300000CE1001B003A00E000210024
:100FF8009040780020CDB300000CE10016003A00C4
:10100800D102210020CDB30080487800E102210000
:1010180020C0B300804878002800200007882300FB
:101028000E20ED00FEFF3A001020ED00FCFF3A0014
:1010380000000000000000002D0020001CCFB300BD
:101048002BC0B3001AC0B300D0022100801F780063
:10105800D1FE07002F00B100110021000020EF0091
:1010680080487800A10021000020EF008048780027
:10107800CF0678004F067800CF0578004F05780036
:10108800A00120000C0009004F1078004F007800E4
:101098003600F9003200F9003400F900004006007B
:100BA0000000FA008B1F7800CEB89700A00120004B
:100BB00000017800158EA800070520000E20ED002A
:100BC000FEFF3A0000000000000000008B1F7800CC
:100BD000ABC3B30077FE0700CF05780075FE0700B2
:100BE0008C45780073FE07009245780071FE07007F
:100BF00061004100904578006EFE07000420EF0080
:100C00000D10E10007003100028040008B1F7800CA
:100C10009045780067FE0700CF0578000420EC00BF
:100C2000F7FF370059FE0700070520000E20ED00F2
:100C3000FEFF3A000000000000000000158EA90031
:0C0C4000CF0578000080FA0000000600DC
:1005B4008A1F78006154E10003003A000B85FB00B8
:1005C4008EFF0700020037000B85FB0092FF070037
:0805D4004F057800000006004D
:100400000000FA002302AF0001003700FDFF3700B3
:0C0410002A1188000080FA00000006009D
:10041C000000FA003302AF0001003700FDFF370087
:0C042C00AA1188000080FA000000060001
:10058C006154E10004003A002302AF00010037007F
:10059C00FDFF3700030037003302AF0001003700C6
:0805AC00FDFF3700000006000E
:100D18003400F8003200F8003600F800801F780030
:100D2800200020000C000900B01F78008A1F7800FE
:100D38008B1F78008C1F78008D1F780000E8A900B1
:100D480011C0B3000000210010C8400000002100BD
:100D5800104078006404E10015003A0011E1A90090
:100D68000621EF00010021000020EF0080487800F4
:100D7800A10021000020EF00804878001100210028
:100D88000020EF00804878000020EF008080880075
:100D98001A20EF001820EF000A482800EB01200075
:100DA80010002000801F78001FFE07002F00B100F0
:100DB800CF0678004F067800CF0578004F057800F9
:100DC800A00120000C0009004F1078004F007800A7
:100DD8003600F9003200F9003400F900004006003E
:020000040005F5
:285FD80000000000000000008B000000F80000007F000000A7000000C100000003000000000000000000000034
:00000001FF
